{
    "contractName": "ASTNftSale",
    "abi": [
        {
            "anonymous": false,
            "inputs": [
                {
                    "indexed": true,
                    "internalType": "address",
                    "name": "owner",
                    "type": "address"
                },
                {
                    "indexed": true,
                    "internalType": "address",
                    "name": "approved",
                    "type": "address"
                },
                {
                    "indexed": true,
                    "internalType": "uint256",
                    "name": "tokenId",
                    "type": "uint256"
                }
            ],
            "name": "Approval",
            "type": "event"
        },
        {
            "anonymous": false,
            "inputs": [
                {
                    "indexed": true,
                    "internalType": "address",
                    "name": "owner",
                    "type": "address"
                },
                {
                    "indexed": true,
                    "internalType": "address",
                    "name": "operator",
                    "type": "address"
                },
                {
                    "indexed": false,
                    "internalType": "bool",
                    "name": "approved",
                    "type": "bool"
                }
            ],
            "name": "ApprovalForAll",
            "type": "event"
        },
        {
            "anonymous": false,
            "inputs": [
                {
                    "indexed": true,
                    "internalType": "address",
                    "name": "to",
                    "type": "address"
                },
                {
                    "indexed": false,
                    "internalType": "uint256",
                    "name": "amount",
                    "type": "uint256"
                },
                {
                    "indexed": false,
                    "internalType": "uint256",
                    "name": "saleId",
                    "type": "uint256"
                }
            ],
            "name": "BoughtNFT",
            "type": "event"
        },
        {
            "anonymous": false,
            "inputs": [
                {
                    "indexed": false,
                    "internalType": "uint8",
                    "name": "version",
                    "type": "uint8"
                }
            ],
            "name": "Initialized",
            "type": "event"
        },
        {
            "anonymous": false,
            "inputs": [
                {
                    "indexed": true,
                    "internalType": "address",
                    "name": "previousOwner",
                    "type": "address"
                },
                {
                    "indexed": true,
                    "internalType": "address",
                    "name": "newOwner",
                    "type": "address"
                }
            ],
            "name": "OwnershipTransferred",
            "type": "event"
        },
        {
            "anonymous": false,
            "inputs": [
                {
                    "indexed": false,
                    "internalType": "address",
                    "name": "account",
                    "type": "address"
                }
            ],
            "name": "Paused",
            "type": "event"
        },
        {
            "anonymous": false,
            "inputs": [
                {
                    "indexed": false,
                    "internalType": "uint256",
                    "name": "saleId",
                    "type": "uint256"
                }
            ],
            "name": "SaleStart",
            "type": "event"
        },
        {
            "anonymous": false,
            "inputs": [
                {
                    "indexed": true,
                    "internalType": "address",
                    "name": "from",
                    "type": "address"
                },
                {
                    "indexed": true,
                    "internalType": "address",
                    "name": "to",
                    "type": "address"
                },
                {
                    "indexed": true,
                    "internalType": "uint256",
                    "name": "tokenId",
                    "type": "uint256"
                }
            ],
            "name": "Transfer",
            "type": "event"
        },
        {
            "anonymous": false,
            "inputs": [
                {
                    "indexed": false,
                    "internalType": "address",
                    "name": "account",
                    "type": "address"
                }
            ],
            "name": "Unpaused",
            "type": "event"
        },
        {
            "inputs": [
                {
                    "internalType": "uint256",
                    "name": "",
                    "type": "uint256"
                }
            ],
            "name": "SaleDetailMap",
            "outputs": [
                {
                    "internalType": "uint256",
                    "name": "cost",
                    "type": "uint256"
                },
                {
                    "internalType": "uint256",
                    "name": "mintCost",
                    "type": "uint256"
                },
                {
                    "internalType": "uint256",
                    "name": "maxSupply",
                    "type": "uint256"
                },
                {
                    "internalType": "uint256",
                    "name": "startTime",
                    "type": "uint256"
                },
                {
                    "internalType": "uint256",
                    "name": "endTime",
                    "type": "uint256"
                },
                {
                    "internalType": "uint256",
                    "name": "remainingSupply",
                    "type": "uint256"
                }
            ],
            "stateMutability": "view",
            "type": "function"
        },
        {
            "inputs": [
                {
                    "internalType": "address",
                    "name": "_tokenAddr",
                    "type": "address"
                }
            ],
            "name": "UpdateTokenAddress",
            "outputs": [],
            "stateMutability": "nonpayable",
            "type": "function"
        },
        {
            "inputs": [
                {
                    "internalType": "address",
                    "name": "to",
                    "type": "address"
                },
                {
                    "internalType": "uint256",
                    "name": "tokenId",
                    "type": "uint256"
                }
            ],
            "name": "approve",
            "outputs": [],
            "stateMutability": "nonpayable",
            "type": "function"
        },
        {
            "inputs": [],
            "name": "astRewards",
            "outputs": [
                {
                    "internalType": "contract IASTRewards",
                    "name": "",
                    "type": "address"
                }
            ],
            "stateMutability": "view",
            "type": "function"
        },
        {
            "inputs": [
                {
                    "internalType": "address",
                    "name": "owner",
                    "type": "address"
                }
            ],
            "name": "balanceOf",
            "outputs": [
                {
                    "internalType": "uint256",
                    "name": "",
                    "type": "uint256"
                }
            ],
            "stateMutability": "view",
            "type": "function"
        },
        {
            "inputs": [],
            "name": "baseExtension",
            "outputs": [
                {
                    "internalType": "string",
                    "name": "",
                    "type": "string"
                }
            ],
            "stateMutability": "view",
            "type": "function"
        },
        {
            "inputs": [],
            "name": "baseURI",
            "outputs": [
                {
                    "internalType": "string",
                    "name": "",
                    "type": "string"
                }
            ],
            "stateMutability": "view",
            "type": "function"
        },
        {
            "inputs": [
                {
                    "internalType": "uint256",
                    "name": "tokenId",
                    "type": "uint256"
                }
            ],
            "name": "burn",
            "outputs": [],
            "stateMutability": "nonpayable",
            "type": "function"
        },
        {
            "inputs": [
                {
                    "internalType": "uint256",
                    "name": "nftQty",
                    "type": "uint256"
                }
            ],
            "name": "buyPresale",
            "outputs": [],
            "stateMutability": "payable",
            "type": "function"
        },
        {
            "inputs": [
                {
                    "internalType": "uint256",
                    "name": "_tokenId",
                    "type": "uint256"
                }
            ],
            "name": "checkTokenRewardEligibility",
            "outputs": [
                {
                    "internalType": "bool",
                    "name": "IsEligible",
                    "type": "bool"
                }
            ],
            "stateMutability": "view",
            "type": "function"
        },
        {
            "inputs": [
                {
                    "internalType": "enum ASTNftSale.CATEGORY",
                    "name": "nftType",
                    "type": "uint8"
                }
            ],
            "name": "getAllTokenByCategory",
            "outputs": [
                {
                    "internalType": "uint256[]",
                    "name": "",
                    "type": "uint256[]"
                }
            ],
            "stateMutability": "view",
            "type": "function"
        },
        {
            "inputs": [
                {
                    "internalType": "uint256",
                    "name": "tokenId",
                    "type": "uint256"
                }
            ],
            "name": "getApproved",
            "outputs": [
                {
                    "internalType": "address",
                    "name": "",
                    "type": "address"
                }
            ],
            "stateMutability": "view",
            "type": "function"
        },
        {
            "inputs": [
                {
                    "internalType": "uint256",
                    "name": "tokenId",
                    "type": "uint256"
                }
            ],
            "name": "getCategory",
            "outputs": [
                {
                    "internalType": "enum ASTNftSale.CATEGORY",
                    "name": "",
                    "type": "uint8"
                }
            ],
            "stateMutability": "view",
            "type": "function"
        },
        {
            "inputs": [],
            "name": "getRevealedTime",
            "outputs": [
                {
                    "internalType": "uint256",
                    "name": "",
                    "type": "uint256"
                }
            ],
            "stateMutability": "view",
            "type": "function"
        },
        {
            "inputs": [
                {
                    "internalType": "string",
                    "name": "_name",
                    "type": "string"
                },
                {
                    "internalType": "string",
                    "name": "_symbol",
                    "type": "string"
                },
                {
                    "internalType": "string",
                    "name": "_baseUri",
                    "type": "string"
                },
                {
                    "internalType": "address",
                    "name": "_tokenAddr",
                    "type": "address"
                },
                {
                    "internalType": "string",
                    "name": "_baseExtension",
                    "type": "string"
                },
                {
                    "internalType": "uint256",
                    "name": "_maxPresaleLimit",
                    "type": "uint256"
                },
                {
                    "internalType": "uint256",
                    "name": "_minToken",
                    "type": "uint256"
                },
                {
                    "internalType": "address",
                    "name": "_receiverAddress",
                    "type": "address"
                },
                {
                    "internalType": "uint96",
                    "name": "_royaltyAmt",
                    "type": "uint96"
                }
            ],
            "name": "initialize",
            "outputs": [],
            "stateMutability": "nonpayable",
            "type": "function"
        },
        {
            "inputs": [],
            "name": "isActive",
            "outputs": [
                {
                    "internalType": "bool",
                    "name": "",
                    "type": "bool"
                }
            ],
            "stateMutability": "view",
            "type": "function"
        },
        {
            "inputs": [
                {
                    "internalType": "address",
                    "name": "owner",
                    "type": "address"
                },
                {
                    "internalType": "address",
                    "name": "operator",
                    "type": "address"
                }
            ],
            "name": "isApprovedForAll",
            "outputs": [
                {
                    "internalType": "bool",
                    "name": "",
                    "type": "bool"
                }
            ],
            "stateMutability": "view",
            "type": "function"
        },
        {
            "inputs": [
                {
                    "internalType": "enum ASTNftSale.CATEGORY[]",
                    "name": "_category",
                    "type": "uint8[]"
                },
                {
                    "internalType": "string[]",
                    "name": "_tokenURI",
                    "type": "string[]"
                }
            ],
            "name": "minting",
            "outputs": [],
            "stateMutability": "nonpayable",
            "type": "function"
        },
        {
            "inputs": [],
            "name": "name",
            "outputs": [
                {
                    "internalType": "string",
                    "name": "",
                    "type": "string"
                }
            ],
            "stateMutability": "view",
            "type": "function"
        },
        {
            "inputs": [],
            "name": "notRevealedUri",
            "outputs": [
                {
                    "internalType": "string",
                    "name": "",
                    "type": "string"
                }
            ],
            "stateMutability": "view",
            "type": "function"
        },
        {
            "inputs": [],
            "name": "owner",
            "outputs": [
                {
                    "internalType": "address",
                    "name": "",
                    "type": "address"
                }
            ],
            "stateMutability": "view",
            "type": "function"
        },
        {
            "inputs": [
                {
                    "internalType": "uint256",
                    "name": "tokenId",
                    "type": "uint256"
                }
            ],
            "name": "ownerOf",
            "outputs": [
                {
                    "internalType": "address",
                    "name": "",
                    "type": "address"
                }
            ],
            "stateMutability": "view",
            "type": "function"
        },
        {
            "inputs": [],
            "name": "pause",
            "outputs": [],
            "stateMutability": "nonpayable",
            "type": "function"
        },
        {
            "inputs": [],
            "name": "paused",
            "outputs": [
                {
                    "internalType": "bool",
                    "name": "",
                    "type": "bool"
                }
            ],
            "stateMutability": "view",
            "type": "function"
        },
        {
            "inputs": [],
            "name": "renounceOwnership",
            "outputs": [],
            "stateMutability": "nonpayable",
            "type": "function"
        },
        {
            "inputs": [],
            "name": "reveal",
            "outputs": [],
            "stateMutability": "nonpayable",
            "type": "function"
        },
        {
            "inputs": [],
            "name": "revealed",
            "outputs": [
                {
                    "internalType": "bool",
                    "name": "",
                    "type": "bool"
                }
            ],
            "stateMutability": "view",
            "type": "function"
        },
        {
            "inputs": [],
            "name": "rewardEnable",
            "outputs": [
                {
                    "internalType": "bool",
                    "name": "",
                    "type": "bool"
                }
            ],
            "stateMutability": "view",
            "type": "function"
        },
        {
            "inputs": [
                {
                    "internalType": "uint256",
                    "name": "_tokenId",
                    "type": "uint256"
                },
                {
                    "internalType": "uint256",
                    "name": "_salePrice",
                    "type": "uint256"
                }
            ],
            "name": "royaltyInfo",
            "outputs": [
                {
                    "internalType": "address",
                    "name": "",
                    "type": "address"
                },
                {
                    "internalType": "uint256",
                    "name": "",
                    "type": "uint256"
                }
            ],
            "stateMutability": "view",
            "type": "function"
        },
        {
            "inputs": [
                {
                    "internalType": "address",
                    "name": "from",
                    "type": "address"
                },
                {
                    "internalType": "address",
                    "name": "to",
                    "type": "address"
                },
                {
                    "internalType": "uint256",
                    "name": "tokenId",
                    "type": "uint256"
                }
            ],
            "name": "safeTransferFrom",
            "outputs": [],
            "stateMutability": "nonpayable",
            "type": "function"
        },
        {
            "inputs": [
                {
                    "internalType": "address",
                    "name": "from",
                    "type": "address"
                },
                {
                    "internalType": "address",
                    "name": "to",
                    "type": "address"
                },
                {
                    "internalType": "uint256",
                    "name": "tokenId",
                    "type": "uint256"
                },
                {
                    "internalType": "bytes",
                    "name": "data",
                    "type": "bytes"
                }
            ],
            "name": "safeTransferFrom",
            "outputs": [],
            "stateMutability": "nonpayable",
            "type": "function"
        },
        {
            "inputs": [
                {
                    "internalType": "address",
                    "name": "operator",
                    "type": "address"
                },
                {
                    "internalType": "bool",
                    "name": "approved",
                    "type": "bool"
                }
            ],
            "name": "setApprovalForAll",
            "outputs": [],
            "stateMutability": "nonpayable",
            "type": "function"
        },
        {
            "inputs": [
                {
                    "internalType": "string",
                    "name": "_newBaseExtension",
                    "type": "string"
                }
            ],
            "name": "setBaseExtension",
            "outputs": [],
            "stateMutability": "nonpayable",
            "type": "function"
        },
        {
            "inputs": [
                {
                    "internalType": "string",
                    "name": "_newBaseURI",
                    "type": "string"
                }
            ],
            "name": "setBaseURI",
            "outputs": [],
            "stateMutability": "nonpayable",
            "type": "function"
        },
        {
            "inputs": [
                {
                    "internalType": "uint256",
                    "name": "_saleId",
                    "type": "uint256"
                },
                {
                    "internalType": "uint256",
                    "name": "_newCost",
                    "type": "uint256"
                }
            ],
            "name": "setCost",
            "outputs": [],
            "stateMutability": "nonpayable",
            "type": "function"
        },
        {
            "inputs": [
                {
                    "internalType": "address",
                    "name": "receiver",
                    "type": "address"
                },
                {
                    "internalType": "uint96",
                    "name": "feeNumerator",
                    "type": "uint96"
                }
            ],
            "name": "setDefaultRoyalty",
            "outputs": [],
            "stateMutability": "nonpayable",
            "type": "function"
        },
        {
            "inputs": [
                {
                    "internalType": "uint256",
                    "name": "_presaleLimit",
                    "type": "uint256"
                }
            ],
            "name": "setMaxPreSaleLimit",
            "outputs": [],
            "stateMutability": "nonpayable",
            "type": "function"
        },
        {
            "inputs": [
                {
                    "internalType": "uint256",
                    "name": "_minToken",
                    "type": "uint256"
                }
            ],
            "name": "setMinimumToken",
            "outputs": [],
            "stateMutability": "nonpayable",
            "type": "function"
        },
        {
            "inputs": [
                {
                    "internalType": "uint256",
                    "name": "_id",
                    "type": "uint256"
                },
                {
                    "internalType": "uint256",
                    "name": "_newMintCost",
                    "type": "uint256"
                }
            ],
            "name": "setMintCost",
            "outputs": [],
            "stateMutability": "nonpayable",
            "type": "function"
        },
        {
            "inputs": [
                {
                    "internalType": "string",
                    "name": "_notRevealedURI",
                    "type": "string"
                }
            ],
            "name": "setNotRevealedURI",
            "outputs": [],
            "stateMutability": "nonpayable",
            "type": "function"
        },
        {
            "inputs": [],
            "name": "setRevealed",
            "outputs": [],
            "stateMutability": "nonpayable",
            "type": "function"
        },
        {
            "inputs": [
                {
                    "internalType": "contract IASTRewards",
                    "name": "_astRewards",
                    "type": "address"
                }
            ],
            "name": "setRewardContract",
            "outputs": [],
            "stateMutability": "nonpayable",
            "type": "function"
        },
        {
            "inputs": [],
            "name": "setRewardStatus",
            "outputs": [],
            "stateMutability": "nonpayable",
            "type": "function"
        },
        {
            "inputs": [
                {
                    "internalType": "uint256",
                    "name": "_tierLevel",
                    "type": "uint256"
                },
                {
                    "internalType": "uint256",
                    "name": "_min",
                    "type": "uint256"
                },
                {
                    "internalType": "uint256",
                    "name": "_max",
                    "type": "uint256"
                }
            ],
            "name": "setTireMap",
            "outputs": [],
            "stateMutability": "nonpayable",
            "type": "function"
        },
        {
            "inputs": [
                {
                    "internalType": "uint256",
                    "name": "_cost",
                    "type": "uint256"
                },
                {
                    "internalType": "uint256",
                    "name": "_mintCost",
                    "type": "uint256"
                },
                {
                    "internalType": "uint256",
                    "name": "_maxSupply",
                    "type": "uint256"
                },
                {
                    "internalType": "uint256",
                    "name": "_startTime",
                    "type": "uint256"
                },
                {
                    "internalType": "uint256",
                    "name": "_endTime",
                    "type": "uint256"
                }
            ],
            "name": "startPreSale",
            "outputs": [
                {
                    "internalType": "uint256",
                    "name": "",
                    "type": "uint256"
                }
            ],
            "stateMutability": "nonpayable",
            "type": "function"
        },
        {
            "inputs": [
                {
                    "internalType": "bytes4",
                    "name": "interfaceId",
                    "type": "bytes4"
                }
            ],
            "name": "supportsInterface",
            "outputs": [
                {
                    "internalType": "bool",
                    "name": "",
                    "type": "bool"
                }
            ],
            "stateMutability": "view",
            "type": "function"
        },
        {
            "inputs": [],
            "name": "symbol",
            "outputs": [
                {
                    "internalType": "string",
                    "name": "",
                    "type": "string"
                }
            ],
            "stateMutability": "view",
            "type": "function"
        },
        {
            "inputs": [
                {
                    "internalType": "uint256",
                    "name": "",
                    "type": "uint256"
                }
            ],
            "name": "tierMap",
            "outputs": [
                {
                    "internalType": "uint256",
                    "name": "minValue",
                    "type": "uint256"
                },
                {
                    "internalType": "uint256",
                    "name": "maxValue",
                    "type": "uint256"
                }
            ],
            "stateMutability": "view",
            "type": "function"
        },
        {
            "inputs": [],
            "name": "token",
            "outputs": [
                {
                    "internalType": "contract IERC20MetadataUpgradeable",
                    "name": "",
                    "type": "address"
                }
            ],
            "stateMutability": "view",
            "type": "function"
        },
        {
            "inputs": [
                {
                    "internalType": "uint256",
                    "name": "index",
                    "type": "uint256"
                }
            ],
            "name": "tokenByIndex",
            "outputs": [
                {
                    "internalType": "uint256",
                    "name": "",
                    "type": "uint256"
                }
            ],
            "stateMutability": "view",
            "type": "function"
        },
        {
            "inputs": [
                {
                    "internalType": "address",
                    "name": "owner",
                    "type": "address"
                },
                {
                    "internalType": "uint256",
                    "name": "index",
                    "type": "uint256"
                }
            ],
            "name": "tokenOfOwnerByIndex",
            "outputs": [
                {
                    "internalType": "uint256",
                    "name": "",
                    "type": "uint256"
                }
            ],
            "stateMutability": "view",
            "type": "function"
        },
        {
            "inputs": [
                {
                    "internalType": "uint256",
                    "name": "tokenId",
                    "type": "uint256"
                }
            ],
            "name": "tokenURI",
            "outputs": [
                {
                    "internalType": "string",
                    "name": "",
                    "type": "string"
                }
            ],
            "stateMutability": "view",
            "type": "function"
        },
        {
            "inputs": [],
            "name": "totalSupply",
            "outputs": [
                {
                    "internalType": "uint256",
                    "name": "",
                    "type": "uint256"
                }
            ],
            "stateMutability": "view",
            "type": "function"
        },
        {
            "inputs": [
                {
                    "internalType": "address",
                    "name": "from",
                    "type": "address"
                },
                {
                    "internalType": "address",
                    "name": "to",
                    "type": "address"
                },
                {
                    "internalType": "uint256",
                    "name": "tokenId",
                    "type": "uint256"
                }
            ],
            "name": "transferFrom",
            "outputs": [],
            "stateMutability": "nonpayable",
            "type": "function"
        },
        {
            "inputs": [
                {
                    "internalType": "address",
                    "name": "newOwner",
                    "type": "address"
                }
            ],
            "name": "transferOwnership",
            "outputs": [],
            "stateMutability": "nonpayable",
            "type": "function"
        },
        {
            "inputs": [],
            "name": "unpause",
            "outputs": [],
            "stateMutability": "nonpayable",
            "type": "function"
        },
        {
            "inputs": [
                {
                    "internalType": "enum ASTNftSale.CATEGORY[]",
                    "name": "_category",
                    "type": "uint8[]"
                },
                {
                    "internalType": "uint256[]",
                    "name": "_id",
                    "type": "uint256[]"
                }
            ],
            "name": "updateCategory",
            "outputs": [],
            "stateMutability": "nonpayable",
            "type": "function"
        },
        {
            "inputs": [],
            "name": "withdrawAmount",
            "outputs": [],
            "stateMutability": "nonpayable",
            "type": "function"
        }
    ],
    "bytecode": "608060405234801561001057600080fd5b50614284806100206000396000f3fe6080604052600436106103815760003560e01c80635dd593c9116101d1578063b88d4fde11610102578063eb1a286f116100a0578063f3052d261161006f578063f3052d2614610a4f578063f86772f914610a8d578063f9be437a14610b0b578063fc0c546a14610b2b57600080fd5b8063eb1a286f146109c2578063ec69d21f146109ef578063f2c4ce1e14610a0f578063f2fde38b14610a2f57600080fd5b8063da3ef23f116100dc578063da3ef23f146108ed578063dfcdeb7f1461090d578063e25d173714610957578063e985e9c51461097957600080fd5b8063b88d4fde14610898578063c6682862146108b8578063c87b56dd146108cd57600080fd5b80638da5cb5b1161016f5780639f2032e4116101495780639f2032e414610823578063a22cb46514610843578063a23f590f14610863578063a475b5dd1461088357600080fd5b80638da5cb5b146107cf57806391b1ecc4146107ee57806395d89b411461080e57600080fd5b806370a08231116101ab57806370a0823114610765578063715018a6146107855780637696e0881461079a5780638456cb59146107ba57600080fd5b80635dd593c91461071b5780636352211e146107305780636c0360eb1461075057600080fd5b80633f4ba83a116102b6578063517cee0811610254578063586d95e711610223578063586d95e7146106ad5780635b701c97146106c35780635c0fe0be146106e35780635c975abb1461070357600080fd5b8063517cee081461063c578063518302271461065d578063534844a21461067857806355f804b31461068d57600080fd5b806346c52b6e1161029057806346c52b6e146105c957806349c32217146105e95780634f6ccce7146105fc57806351508f0a1461061c57600080fd5b80633f4ba83a1461057457806342842e0e1461058957806342966c68146105a957600080fd5b806318160ddd1161032357806328b13d11116102fd57806328b13d11146104e05780632a55205a146105005780632f745c591461053f5780633bd649681461055f57600080fd5b806318160ddd1461048c57806322f3e2d4146104ab57806323b872dd146104c057600080fd5b8063081812fc1161035f578063081812fc146103ff578063081c8c4414610437578063095ea7b31461044c5780630a25a0d81461046c57600080fd5b806301ffc9a71461038657806304634d8d146103bb57806306fdde03146103dd575b600080fd5b34801561039257600080fd5b506103a66103a1366004613627565b610b4c565b60405190151581526020015b60405180910390f35b3480156103c757600080fd5b506103db6103d636600461367b565b610b5d565b005b3480156103e957600080fd5b506103f2610b73565b6040516103b29190613700565b34801561040b57600080fd5b5061041f61041a366004613713565b610c05565b6040516001600160a01b0390911681526020016103b2565b34801561044357600080fd5b506103f2610c2c565b34801561045857600080fd5b506103db61046736600461372c565b610cbb565b34801561047857600080fd5b506103db610487366004613817565b610dd5565b34801561049857600080fd5b5060cb545b6040519081526020016103b2565b3480156104b757600080fd5b506103a66110a4565b3480156104cc57600080fd5b506103db6104db36600461390a565b611118565b3480156104ec57600080fd5b506103a66104fb366004613713565b61114a565b34801561050c57600080fd5b5061052061051b36600461394b565b611189565b604080516001600160a01b0390931683526020830191909152016103b2565b34801561054b57600080fd5b5061049d61055a36600461372c565b611237565b34801561056b57600080fd5b506103db6112cd565b34801561058057600080fd5b506103db6112ea565b34801561059557600080fd5b506103db6105a436600461390a565b6112fc565b3480156105b557600080fd5b506103db6105c4366004613713565b611383565b3480156105d557600080fd5b506103db6105e4366004613a12565b6113b4565b6103db6105f7366004613713565b6114dd565b34801561060857600080fd5b5061049d610617366004613713565b6117e3565b34801561062857600080fd5b506103db610637366004613ae7565b611876565b34801561064857600080fd5b506101cf5461041f906001600160a01b031681565b34801561066957600080fd5b506101c8546103a69060ff1681565b34801561068457600080fd5b506103db6118a1565b34801561069957600080fd5b506103db6106a8366004613b04565b6118e3565b3480156106b957600080fd5b506101d15461049d565b3480156106cf57600080fd5b506103db6106de36600461394b565b6118f8565b3480156106ef57600080fd5b506103db6106fe366004613b39565b611916565b34801561070f57600080fd5b5060fb5460ff166103a6565b34801561072757600080fd5b506103db611937565b34801561073c57600080fd5b5061041f61074b366004613713565b611961565b34801561075c57600080fd5b506103f26119c1565b34801561077157600080fd5b5061049d610780366004613ae7565b6119cf565b34801561079157600080fd5b506103db611a55565b3480156107a657600080fd5b506103db6107b536600461394b565b611a67565b3480156107c657600080fd5b506103db611a82565b3480156107db57600080fd5b5061012d546001600160a01b031661041f565b3480156107fa57600080fd5b506103db610809366004613713565b611a92565b34801561081a57600080fd5b506103f2611aa0565b34801561082f57600080fd5b506103db61083e366004613713565b611aaf565b34801561084f57600080fd5b506103db61085e366004613b73565b611abd565b34801561086f57600080fd5b5061049d61087e366004613bac565b611ac8565b34801561088f57600080fd5b506103db611b7d565b3480156108a457600080fd5b506103db6108b3366004613be7565b611b9a565b3480156108c457600080fd5b506103f2611bd2565b3480156108d957600080fd5b506103f26108e8366004613713565b611be0565b3480156108f957600080fd5b506103db610908366004613b04565b611d62565b34801561091957600080fd5b50610942610928366004613713565b6101d0602052600090815260409020805460019091015482565b604080519283526020830191909152016103b2565b34801561096357600080fd5b506101cf546103a690600160a01b900460ff1681565b34801561098557600080fd5b506103a6610994366004613c67565b6001600160a01b039182166000908152606a6020908152604080832093909416825291909152205460ff1690565b3480156109ce57600080fd5b506109e26109dd366004613c95565b611d77565b6040516103b29190613cb0565b3480156109fb57600080fd5b506103db610a0a366004613cf4565b611e04565b348015610a1b57600080fd5b506103db610a2a366004613b04565b611f59565b348015610a3b57600080fd5b506103db610a4a366004613ae7565b611f6e565b348015610a5b57600080fd5b50610a80610a6a366004613713565b60009081526101cc602052604090205460ff1690565b6040516103b29190613dc5565b348015610a9957600080fd5b50610ade610aa8366004613713565b6101ce60205260009081526040902080546001820154600283015460038401546004850154600590950154939492939192909186565b604080519687526020870195909552938501929092526060840152608083015260a082015260c0016103b2565b348015610b1757600080fd5b506103db610b26366004613ae7565b611fe4565b348015610b3757600080fd5b506101c45461041f906001600160a01b031681565b6000610b578261200f565b92915050565b610b65612034565b610b6f828261208f565b5050565b606060658054610b8290613ded565b80601f0160208091040260200160405190810160405280929190818152602001828054610bae90613ded565b8015610bfb5780601f10610bd057610100808354040283529160200191610bfb565b820191906000526020600020905b815481529060010190602001808311610bde57829003601f168201915b5050505050905090565b6000610c108261218d565b506000908152606960205260409020546001600160a01b031690565b6101c68054610c3a90613ded565b80601f0160208091040260200160405190810160405280929190818152602001828054610c6690613ded565b8015610cb35780601f10610c8857610100808354040283529160200191610cb3565b820191906000526020600020905b815481529060010190602001808311610c9657829003601f168201915b505050505081565b6000610cc682611961565b9050806001600160a01b0316836001600160a01b031603610d385760405162461bcd60e51b815260206004820152602160248201527f4552433732313a20617070726f76616c20746f2063757272656e74206f776e656044820152603960f91b60648201526084015b60405180910390fd5b336001600160a01b0382161480610d545750610d548133610994565b610dc65760405162461bcd60e51b815260206004820152603d60248201527f4552433732313a20617070726f76652063616c6c6572206973206e6f7420746f60448201527f6b656e206f776e6572206f7220617070726f76656420666f7220616c6c0000006064820152608401610d2f565b610dd083836121ec565b505050565b600054610100900460ff1615808015610df55750600054600160ff909116105b80610e0f5750303b158015610e0f575060005460ff166001145b610e725760405162461bcd60e51b815260206004820152602e60248201527f496e697469616c697a61626c653a20636f6e747261637420697320616c72656160448201526d191e481a5b9a5d1a585b1a5e995960921b6064820152608401610d2f565b6000805460ff191660011790558015610e95576000805461ff0019166101001790555b610e9f8a8a61225a565b610ea761228b565b610eaf61228b565b610eb76122b2565b610ebf6122e1565b610ec761228b565b610ecf61228b565b610ed761228b565b6101c5610ee48982613e75565b506101c7610ef28782613e75565b506101c98590556101ca8490556101c480546001600160a01b0389166001600160a01b031990911617905560016101cb556101cf805460ff60a01b1916600160a01b179055610f41838361208f565b6101d060205268056bc75e2d631000007f943100c519dfca697932442009ddad5134c7a40046352101a1d27786b4a47ac055681043561a88293000007f943100c519dfca697932442009ddad5134c7a40046352101a1d27786b4a47ac155681043561a88293000017f2dc24ea9ce6568107916971cb641c953467a20ea6b785755d0de398c500e907655682086ac3510526000007f2dc24ea9ce6568107916971cb641c953467a20ea6b785755d0de398c500e9077556003600052682086ac3510526000017e42f5575eb9a37c97b0bf9c2ab46d00302eafc373472bcce40e99e8b2f4a0b555682b5e3af16b188000007e42f5575eb9a37c97b0bf9c2ab46d00302eafc373472bcce40e99e8b2f4a0b6558015611098576000805461ff0019169055604051600181527f7f26b83ff96e1f2b6a682f133852f6798a09c465da95921460cefb38474024989060200160405180910390a15b50505050505050505050565b6101cb5460009081526101ce60209081526040808320815160c081018352815481526001820154938101939093526002810154918301919091526003810154606083018190526004820154608084015260059091015460a08301524210801590611112575080608001514211155b91505090565b611123335b82612310565b61113f5760405162461bcd60e51b8152600401610d2f90613f35565b610dd083838361238f565b60006001821015801561115f57506109608211155b801561117b57506101d154611178906305a39a80613f98565b42105b15611184575060015b919050565b6000828152610192602090815260408083208151808301909252546001600160a01b038116808352600160a01b9091046001600160601b0316928201929092528291611200575060408051808201909152610191546001600160a01b0381168252600160a01b90046001600160601b031660208201525b60208101516000906127109061121f906001600160601b031687613fab565b6112299190613fc2565b915196919550909350505050565b6000611242836119cf565b82106112a45760405162461bcd60e51b815260206004820152602b60248201527f455243373231456e756d657261626c653a206f776e657220696e646578206f7560448201526a74206f6620626f756e647360a81b6064820152608401610d2f565b506001600160a01b0391909116600090815260c960209081526040808320938352929052205490565b6112d5612034565b6101c8805460ff19811660ff90911615179055565b6112f2612034565b6112fa612500565b565b6113053361111d565b6113685760405162461bcd60e51b815260206004820152602e60248201527f4552433732313a2063616c6c6572206973206e6f7420746f6b656e206f776e6560448201526d1c881b9bdc88185c1c1c9bdd995960921b6064820152608401610d2f565b610dd083838360405180602001604052806000815250612552565b61138c3361111d565b6113a85760405162461bcd60e51b8152600401610d2f90613f35565b6113b181612585565b50565b6113bc612034565b60005b8251811015610dd0576113d76101c380546001019055565b60006113e36101c35490565b90506113f0335b8261258e565b83828151811061140257611402613fe4565b60209081029190910181015160008381526101cc9092526040909120805460ff1916600183600381111561143857611438613daf565b02179055506101cd600085848151811061145457611454613fe4565b6020026020010151600381111561146d5761146d613daf565b600381111561147e5761147e613daf565b8152602080820192909252604001600090812080546001810182559082529190200181905582516114ca9082908590859081106114bd576114bd613fe4565b60200260200101516125a8565b816114d481613ffa565b925050506113bf565b6101cb5460009081526101ce6020526040902060030154421080159061151957506101cb5460009081526101ce60205260409020600401544211155b6115655760405162461bcd60e51b815260206004820152601760248201527f5072697661746553616c6520697320496e4163746976650000000000000000006044820152606401610d2f565b6101cb5460009081526101ce60205260409020600101546115869082613fab565b34146115cb5760405162461bcd60e51b8152602060048201526014602482015273496e73756666696369656e742062616c616e636560601b6044820152606401610d2f565b6115d5338261263b565b6101cb5460009081526101ce6020526040902060020154816115f76101c35490565b6116019190613f98565b11156116435760405162461bcd60e51b81526020600482015260116024820152704e6f7420656e6f75676820746f6b656e7360781b6044820152606401610d2f565b6101cb5460009081526101ce602052604081206005018054839290611669908490614013565b90915550600090505b818110156116b3576116896101c380546001019055565b60006116956101c35490565b90506116a0336113ea565b816116aa81613ffa565b92505050611672565b506101c4546101cb5460009081526101ce60205260409020546001600160a01b03909116906323b872dd90339030906116ec9086613fab565b6040516001600160e01b031960e086901b1681526001600160a01b03938416600482015292909116602483015260448201526064016020604051808303816000875af1158015611740573d6000803e3d6000fd5b505050506040513d601f19601f820116820180604052508101906117649190614026565b5061012d546040516001600160a01b03909116903480156108fc02916000818181858888f1935050505015801561179f573d6000803e3d6000fd5b506101cb5460408051838152602081019290925233917fd99878669b9e12c01419b6a5f8f4669400ae8da15fcdfb466066e2c785c4d5c2910160405180910390a250565b60006117ee60cb5490565b82106118515760405162461bcd60e51b815260206004820152602c60248201527f455243373231456e756d657261626c653a20676c6f62616c20696e646578206f60448201526b7574206f6620626f756e647360a01b6064820152608401610d2f565b60cb828154811061186457611864613fe4565b90600052602060002001549050919050565b61187e612034565b6101cf80546001600160a01b0319166001600160a01b0392909216919091179055565b6118a9612034565b61012d546040516001600160a01b03909116904780156108fc02916000818181858888f193505050501580156113b1573d6000803e3d6000fd5b6118eb612034565b6101c5610b6f8282613e75565b611900612034565b60009182526101ce602052604090912060010155565b61191e612034565b60009283526101d0602052604090922090815560010155565b61193f612034565b6101cf805460ff60a01b198116600160a01b9182900460ff1615909102179055565b6000818152606760205260408120546001600160a01b031680610b575760405162461bcd60e51b8152602060048201526018602482015277115490cdcc8c4e881a5b9d985b1a59081d1bdad95b88125160421b6044820152606401610d2f565b6101c58054610c3a90613ded565b60006001600160a01b038216611a395760405162461bcd60e51b815260206004820152602960248201527f4552433732313a2061646472657373207a65726f206973206e6f7420612076616044820152683634b21037bbb732b960b91b6064820152608401610d2f565b506001600160a01b031660009081526068602052604090205490565b611a5d612034565b6112fa600061291d565b611a6f612034565b60009182526101ce602052604090912055565b611a8a612034565b6112fa612970565b611a9a612034565b6101c955565b606060668054610b8290613ded565b611ab7612034565b6101ca55565b610b6f3383836129ad565b6000611ad2612034565b6040805160c0810182528781526020808201888152828401888152606084018881526080850188815260a086018b81526101cb805460009081526101ce88528990209751885594516001880155925160028701559051600386015551600485015551600590930192909255905491519182527feeae71454a2a58ac8d7c3a2ac3db1f29f81cbd0024aae4292a55139dd9d3560a910160405180910390a1506101cb5495945050505050565b611b85612034565b6101c8805460ff19166001179055426101d155565b611ba43383612310565b611bc05760405162461bcd60e51b8152600401610d2f90613f35565b611bcc84848484612552565b50505050565b6101c78054610c3a90613ded565b6000818152606760205260409020546060906001600160a01b0316611c5f5760405162461bcd60e51b815260206004820152602f60248201527f4552433732314d657461646174613a2055524920717565727920666f72206e6f60448201526e3732bc34b9ba32b73a103a37b5b2b760891b6064820152608401610d2f565b6101c85460ff161515600003611d02576101c68054611c7d90613ded565b80601f0160208091040260200160405190810160405280929190818152602001828054611ca990613ded565b8015611cf65780601f10611ccb57610100808354040283529160200191611cf6565b820191906000526020600020905b815481529060010190602001808311611cd957829003601f168201915b50505050509050919050565b6000611d0c612a7b565b90506000815111611d2c5760405180602001604052806000815250611d5b565b80611d3684612a8b565b6101c7604051602001611d4b93929190614043565b6040516020818303038152906040525b9392505050565b611d6a612034565b6101c7610b6f8282613e75565b60606101cd6000836003811115611d9057611d90613daf565b6003811115611da157611da1613daf565b8152602001908152602001600020805480602002602001604051908101604052809291908181526020018280548015611cf657602002820191906000526020600020905b815481526020019060010190808311611de55750505050509050919050565b611e0c612034565b8051825114611e4e5760405162461bcd60e51b815260206004820152600e60248201526d092dcecc2d8d2c840d8cadccee8d60931b6044820152606401610d2f565b60005b8251811015610dd057828181518110611e6c57611e6c613fe4565b60200260200101516101cc6000848481518110611e8b57611e8b613fe4565b6020026020010151815260200190815260200160002060006101000a81548160ff02191690836003811115611ec257611ec2613daf565b02179055506101cd6000848381518110611ede57611ede613fe4565b60200260200101516003811115611ef757611ef7613daf565b6003811115611f0857611f08613daf565b8152602001908152602001600020828281518110611f2857611f28613fe4565b6020908102919091018101518254600181018455600093845291909220015580611f5181613ffa565b915050611e51565b611f61612034565b6101c6610b6f8282613e75565b611f76612034565b6001600160a01b038116611fdb5760405162461bcd60e51b815260206004820152602660248201527f4f776e61626c653a206e6577206f776e657220697320746865207a65726f206160448201526564647265737360d01b6064820152608401610d2f565b6113b18161291d565b611fec612034565b6101c480546001600160a01b0319166001600160a01b0392909216919091179055565b60006001600160e01b0319821663152a902d60e11b1480610b575750610b5782612b1e565b61012d546001600160a01b031633146112fa5760405162461bcd60e51b815260206004820181905260248201527f4f776e61626c653a2063616c6c6572206973206e6f7420746865206f776e65726044820152606401610d2f565b6127106001600160601b03821611156120fd5760405162461bcd60e51b815260206004820152602a60248201527f455243323938313a20726f79616c7479206665652077696c6c206578636565646044820152692073616c65507269636560b01b6064820152608401610d2f565b6001600160a01b0382166121535760405162461bcd60e51b815260206004820152601960248201527f455243323938313a20696e76616c6964207265636569766572000000000000006044820152606401610d2f565b604080518082019091526001600160a01b039092168083526001600160601b039091166020909201829052600160a01b9091021761019155565b6000818152606760205260409020546001600160a01b03166113b15760405162461bcd60e51b8152602060048201526018602482015277115490cdcc8c4e881a5b9d985b1a59081d1bdad95b88125160421b6044820152606401610d2f565b600081815260696020526040902080546001600160a01b0319166001600160a01b038416908117909155819061222182611961565b6001600160a01b03167f8c5be1e5ebec7d5bd14f71427d1e84f3dd0314c0f7b2291e5b200ac8c7c3b92560405160405180910390a45050565b600054610100900460ff166122815760405162461bcd60e51b8152600401610d2f906140e3565b610b6f8282612b43565b600054610100900460ff166112fa5760405162461bcd60e51b8152600401610d2f906140e3565b600054610100900460ff166122d95760405162461bcd60e51b8152600401610d2f906140e3565b6112fa612b83565b600054610100900460ff166123085760405162461bcd60e51b8152600401610d2f906140e3565b6112fa612bb6565b60008061231c83611961565b9050806001600160a01b0316846001600160a01b0316148061236357506001600160a01b038082166000908152606a602090815260408083209388168352929052205460ff165b806123875750836001600160a01b031661237c84610c05565b6001600160a01b0316145b949350505050565b826001600160a01b03166123a282611961565b6001600160a01b0316146123c85760405162461bcd60e51b8152600401610d2f9061412e565b6001600160a01b03821661242a5760405162461bcd60e51b8152602060048201526024808201527f4552433732313a207472616e7366657220746f20746865207a65726f206164646044820152637265737360e01b6064820152608401610d2f565b6124378383836001612be6565b826001600160a01b031661244a82611961565b6001600160a01b0316146124705760405162461bcd60e51b8152600401610d2f9061412e565b600081815260696020908152604080832080546001600160a01b03199081169091556001600160a01b0387811680865260688552838620805460001901905590871680865283862080546001019055868652606790945282852080549092168417909155905184937fddf252ad1be2c89b69c2b068fc378daa952ba7f163c4a11628f55a4df523b3ef91a4505050565b612508612d0b565b60fb805460ff191690557f5db9ee0a495bf2e6ff9c91a7834c1ba4fdd244a5e8aa4e537bd38aeae4b073aa335b6040516001600160a01b03909116815260200160405180910390a1565b61255d84848461238f565b61256984848484612d54565b611bcc5760405162461bcd60e51b8152600401610d2f90614173565b6113b181612e55565b610b6f828260405180602001604052806000815250612e95565b6000828152606760205260409020546001600160a01b03166126235760405162461bcd60e51b815260206004820152602e60248201527f45524337323155524953746f726167653a2055524920736574206f66206e6f6e60448201526d32bc34b9ba32b73a103a37b5b2b760911b6064820152608401610d2f565b6000828152609760205260409020610dd08282613e75565b6101c4546040516370a0823160e01b81526001600160a01b03848116600483015260009216906370a0823190602401602060405180830381865afa158015612687573d6000803e3d6000fd5b505050506040513d601f19601f820116820180604052508101906126ab91906141c5565b905060006126b8846119cf565b90506101ca548210156127045760405162461bcd60e51b8152602060048201526014602482015273496e73756666696369656e742062616c616e636560601b6044820152606401610d2f565b6101c9546127128483613f98565b11156127585760405162461bcd60e51b8152602060048201526015602482015274189d5e5a5b99c8131a5b5a5d08195e18d959591959605a1b6044820152606401610d2f565b600160009081526101d06020527f943100c519dfca697932442009ddad5134c7a40046352101a1d27786b4a47ac05483108015906127c2575060016000526101d06020527f943100c519dfca697932442009ddad5134c7a40046352101a1d27786b4a47ac1548311155b6128b15760026000526101d06020527f2dc24ea9ce6568107916971cb641c953467a20ea6b785755d0de398c500e907654831080159061282e575060026000526101d06020527f2dc24ea9ce6568107916971cb641c953467a20ea6b785755d0de398c500e9077548311155b6128aa5760036000526101d06020527e42f5575eb9a37c97b0bf9c2ab46d00302eafc373472bcce40e99e8b2f4a0b5548310801590612898575060036000526101d06020527e42f5575eb9a37c97b0bf9c2ab46d00302eafc373472bcce40e99e8b2f4a0b6548311155b6128a35760046128b4565b60036128b4565b60026128b4565b60015b60ff1690508181101580156128d25750836128cf8383614013565b10155b6129165760405162461bcd60e51b8152602060048201526015602482015274189d5e5a5b99c8131a5b5a5d08195e18d959591959605a1b6044820152606401610d2f565b5050505050565b61012d80546001600160a01b038381166001600160a01b0319831681179093556040519116919082907f8be0079c531659141344cd1fd0a4f28419497f9722a3daafe3b4186f6b6457e090600090a35050565b612978612ec8565b60fb805460ff191660011790557f62e78cea01bee320cd4e420270b5ea74000d11b0c9f74754ebdbfc544b05a2586125353390565b816001600160a01b0316836001600160a01b031603612a0e5760405162461bcd60e51b815260206004820152601960248201527f4552433732313a20617070726f766520746f2063616c6c6572000000000000006044820152606401610d2f565b6001600160a01b038381166000818152606a6020908152604080832094871680845294825291829020805460ff191686151590811790915591519182527f17307eab39ab6107e8899845ad3d59bd9653f200f220920489ca2b5937696c31910160405180910390a3505050565b60606101c58054610b8290613ded565b60606000612a9883612f0e565b600101905060008167ffffffffffffffff811115612ab857612ab8613758565b6040519080825280601f01601f191660200182016040528015612ae2576020820181803683370190505b5090508181016020015b600019016f181899199a1a9b1b9c1cb0b131b232b360811b600a86061a8153600a8504945084612aec57509392505050565b60006001600160e01b0319821663780e9d6360e01b1480610b575750610b5782612fe6565b600054610100900460ff16612b6a5760405162461bcd60e51b8152600401610d2f906140e3565b6065612b768382613e75565b506066610dd08282613e75565b600054610100900460ff16612baa5760405162461bcd60e51b8152600401610d2f906140e3565b60fb805460ff19169055565b600054610100900460ff16612bdd5760405162461bcd60e51b8152600401610d2f906140e3565b6112fa3361291d565b612bee612ec8565b6101cf54600160a01b900460ff168015612c1057506001600160a01b03841615155b8015612c205750612c208261114a565b15612cff576101cf5460405163740fae5960e11b8152600481018490526000916001600160a01b03169063e81f5cb290602401602060405180830381865afa158015612c70573d6000803e3d6000fd5b505050506040513d601f19601f82011682018060405250810190612c9491906141c5565b6101cf546040516389b0724360e01b81526001600160a01b038881166004830152602482018490529293509116906389b0724390604401600060405180830381600087803b158015612ce557600080fd5b505af1158015612cf9573d6000803e3d6000fd5b50505050505b611bcc84848484613036565b60fb5460ff166112fa5760405162461bcd60e51b815260206004820152601460248201527314185d5cd8589b194e881b9bdd081c185d5cd95960621b6044820152606401610d2f565b60006001600160a01b0384163b15612e4a57604051630a85bd0160e11b81526001600160a01b0385169063150b7a0290612d989033908990889088906004016141de565b6020604051808303816000875af1925050508015612dd3575060408051601f3d908101601f19168201909252612dd09181019061421b565b60015b612e30573d808015612e01576040519150601f19603f3d011682016040523d82523d6000602084013e612e06565b606091505b508051600003612e285760405162461bcd60e51b8152600401610d2f90614173565b805181602001fd5b6001600160e01b031916630a85bd0160e11b149050612387565b506001949350505050565b612e5e8161316f565b60008181526097602052604090208054612e7790613ded565b1590506113b15760008181526097602052604081206113b1916135c3565b612e9f8383613212565b612eac6000848484612d54565b610dd05760405162461bcd60e51b8152600401610d2f90614173565b60fb5460ff16156112fa5760405162461bcd60e51b815260206004820152601060248201526f14185d5cd8589b194e881c185d5cd95960821b6044820152606401610d2f565b60008072184f03e93ff9f4daa797ed6e38ed64bf6a1f0160401b8310612f4d5772184f03e93ff9f4daa797ed6e38ed64bf6a1f0160401b830492506040015b6d04ee2d6d415b85acef81000000008310612f79576d04ee2d6d415b85acef8100000000830492506020015b662386f26fc100008310612f9757662386f26fc10000830492506010015b6305f5e1008310612faf576305f5e100830492506008015b6127108310612fc357612710830492506004015b60648310612fd5576064830492506002015b600a8310610b575760010192915050565b60006001600160e01b031982166380ac58cd60e01b148061301757506001600160e01b03198216635b5e139f60e01b145b80610b5757506301ffc9a760e01b6001600160e01b0319831614610b57565b613042848484846133ab565b60018111156130b15760405162461bcd60e51b815260206004820152603560248201527f455243373231456e756d657261626c653a20636f6e7365637574697665207472604482015274185b9cd9995c9cc81b9bdd081cdd5c1c1bdc9d1959605a1b6064820152608401610d2f565b816001600160a01b03851661310d576131088160cb8054600083815260cc60205260408120829055600182018355919091527fa7ce836d032b2bf62b7e2097a8e0a6d8aeb35405ad15271e96d3b0188a1d06fb0155565b613130565b836001600160a01b0316856001600160a01b031614613130576131308582613433565b6001600160a01b03841661314c57613147816134d0565b612916565b846001600160a01b0316846001600160a01b03161461291657612916848261357f565b600061317a82611961565b905061318a816000846001612be6565b61319382611961565b600083815260696020908152604080832080546001600160a01b03199081169091556001600160a01b0385168085526068845282852080546000190190558785526067909352818420805490911690555192935084927fddf252ad1be2c89b69c2b068fc378daa952ba7f163c4a11628f55a4df523b3ef908390a45050565b6001600160a01b0382166132685760405162461bcd60e51b815260206004820181905260248201527f4552433732313a206d696e7420746f20746865207a65726f20616464726573736044820152606401610d2f565b6000818152606760205260409020546001600160a01b0316156132cd5760405162461bcd60e51b815260206004820152601c60248201527f4552433732313a20746f6b656e20616c7265616479206d696e746564000000006044820152606401610d2f565b6132db600083836001612be6565b6000818152606760205260409020546001600160a01b0316156133405760405162461bcd60e51b815260206004820152601c60248201527f4552433732313a20746f6b656e20616c7265616479206d696e746564000000006044820152606401610d2f565b6001600160a01b038216600081815260686020908152604080832080546001019055848352606790915280822080546001600160a01b0319168417905551839291907fddf252ad1be2c89b69c2b068fc378daa952ba7f163c4a11628f55a4df523b3ef908290a45050565b6001811115611bcc576001600160a01b038416156133f1576001600160a01b038416600090815260686020526040812080548392906133eb908490614013565b90915550505b6001600160a01b03831615611bcc576001600160a01b03831660009081526068602052604081208054839290613428908490613f98565b909155505050505050565b60006001613440846119cf565b61344a9190614013565b600083815260ca602052604090205490915080821461349d576001600160a01b038416600090815260c960209081526040808320858452825280832054848452818420819055835260ca90915290208190555b50600091825260ca602090815260408084208490556001600160a01b03909416835260c981528383209183525290812055565b60cb546000906134e290600190614013565b600083815260cc602052604081205460cb805493945090928490811061350a5761350a613fe4565b906000526020600020015490508060cb838154811061352b5761352b613fe4565b600091825260208083209091019290925582815260cc909152604080822084905585825281205560cb80548061356357613563614238565b6001900381819060005260206000200160009055905550505050565b600061358a836119cf565b6001600160a01b03909316600090815260c960209081526040808320868452825280832085905593825260ca9052919091209190915550565b5080546135cf90613ded565b6000825580601f106135df575050565b601f0160209004906000526020600020908101906113b191905b8082111561360d57600081556001016135f9565b5090565b6001600160e01b0319811681146113b157600080fd5b60006020828403121561363957600080fd5b8135611d5b81613611565b6001600160a01b03811681146113b157600080fd5b803561118481613644565b80356001600160601b038116811461118457600080fd5b6000806040838503121561368e57600080fd5b823561369981613644565b91506136a760208401613664565b90509250929050565b60005b838110156136cb5781810151838201526020016136b3565b50506000910152565b600081518084526136ec8160208601602086016136b0565b601f01601f19169290920160200192915050565b602081526000611d5b60208301846136d4565b60006020828403121561372557600080fd5b5035919050565b6000806040838503121561373f57600080fd5b823561374a81613644565b946020939093013593505050565b634e487b7160e01b600052604160045260246000fd5b604051601f8201601f1916810167ffffffffffffffff8111828210171561379757613797613758565b604052919050565b600067ffffffffffffffff8311156137b9576137b9613758565b6137cc601f8401601f191660200161376e565b90508281528383830111156137e057600080fd5b828260208301376000602084830101529392505050565b600082601f83011261380857600080fd5b611d5b8383356020850161379f565b60008060008060008060008060006101208a8c03121561383657600080fd5b893567ffffffffffffffff8082111561384e57600080fd5b61385a8d838e016137f7565b9a5060208c013591508082111561387057600080fd5b61387c8d838e016137f7565b995060408c013591508082111561389257600080fd5b61389e8d838e016137f7565b98506138ac60608d01613659565b975060808c01359150808211156138c257600080fd5b506138cf8c828d016137f7565b95505060a08a0135935060c08a013592506138ec60e08b01613659565b91506138fb6101008b01613664565b90509295985092959850929598565b60008060006060848603121561391f57600080fd5b833561392a81613644565b9250602084013561393a81613644565b929592945050506040919091013590565b6000806040838503121561395e57600080fd5b50508035926020909101359150565b600067ffffffffffffffff82111561398757613987613758565b5060051b60200190565b80356004811061118457600080fd5b600082601f8301126139b157600080fd5b813560206139c66139c18361396d565b61376e565b82815260059290921b840181019181810190868411156139e557600080fd5b8286015b84811015613a07576139fa81613991565b83529183019183016139e9565b509695505050505050565b60008060408385031215613a2557600080fd5b823567ffffffffffffffff80821115613a3d57600080fd5b613a49868387016139a0565b9350602091508185013581811115613a6057600080fd5b8501601f81018713613a7157600080fd5b8035613a7f6139c18261396d565b81815260059190911b82018401908481019089831115613a9e57600080fd5b8584015b83811015613ad657803586811115613aba5760008081fd5b613ac88c89838901016137f7565b845250918601918601613aa2565b508096505050505050509250929050565b600060208284031215613af957600080fd5b8135611d5b81613644565b600060208284031215613b1657600080fd5b813567ffffffffffffffff811115613b2d57600080fd5b612387848285016137f7565b600080600060608486031215613b4e57600080fd5b505081359360208301359350604090920135919050565b80151581146113b157600080fd5b60008060408385031215613b8657600080fd5b8235613b9181613644565b91506020830135613ba181613b65565b809150509250929050565b600080600080600060a08688031215613bc457600080fd5b505083359560208501359550604085013594606081013594506080013592509050565b60008060008060808587031215613bfd57600080fd5b8435613c0881613644565b93506020850135613c1881613644565b925060408501359150606085013567ffffffffffffffff811115613c3b57600080fd5b8501601f81018713613c4c57600080fd5b613c5b8782356020840161379f565b91505092959194509250565b60008060408385031215613c7a57600080fd5b8235613c8581613644565b91506020830135613ba181613644565b600060208284031215613ca757600080fd5b611d5b82613991565b6020808252825182820181905260009190848201906040850190845b81811015613ce857835183529284019291840191600101613ccc565b50909695505050505050565b60008060408385031215613d0757600080fd5b823567ffffffffffffffff80821115613d1f57600080fd5b613d2b868387016139a0565b9350602091508185013581811115613d4257600080fd5b85019050601f81018613613d5557600080fd5b8035613d636139c18261396d565b81815260059190911b82018301908381019088831115613d8257600080fd5b928401925b82841015613da057833582529284019290840190613d87565b80955050505050509250929050565b634e487b7160e01b600052602160045260246000fd5b6020810160048310613de757634e487b7160e01b600052602160045260246000fd5b91905290565b600181811c90821680613e0157607f821691505b602082108103613e2157634e487b7160e01b600052602260045260246000fd5b50919050565b601f821115610dd057600081815260208120601f850160051c81016020861015613e4e5750805b601f850160051c820191505b81811015613e6d57828155600101613e5a565b505050505050565b815167ffffffffffffffff811115613e8f57613e8f613758565b613ea381613e9d8454613ded565b84613e27565b602080601f831160018114613ed85760008415613ec05750858301515b600019600386901b1c1916600185901b178555613e6d565b600085815260208120601f198616915b82811015613f0757888601518255948401946001909101908401613ee8565b5085821015613f255787850151600019600388901b60f8161c191681555b5050505050600190811b01905550565b6020808252602d908201527f4552433732313a2063616c6c6572206973206e6f7420746f6b656e206f776e6560408201526c1c881bdc88185c1c1c9bdd9959609a1b606082015260800190565b634e487b7160e01b600052601160045260246000fd5b80820180821115610b5757610b57613f82565b8082028115828204841417610b5757610b57613f82565b600082613fdf57634e487b7160e01b600052601260045260246000fd5b500490565b634e487b7160e01b600052603260045260246000fd5b60006001820161400c5761400c613f82565b5060010190565b81810381811115610b5757610b57613f82565b60006020828403121561403857600080fd5b8151611d5b81613b65565b6000845160206140568285838a016136b0565b8551918401916140698184848a016136b0565b855492019160009061407a81613ded565b6001828116801561409257600181146140a7576140d3565b60ff19841687528215158302870194506140d3565b896000528560002060005b848110156140cb578154898201529083019087016140b2565b505082870194505b50929a9950505050505050505050565b6020808252602b908201527f496e697469616c697a61626c653a20636f6e7472616374206973206e6f74206960408201526a6e697469616c697a696e6760a81b606082015260800190565b60208082526025908201527f4552433732313a207472616e736665722066726f6d20696e636f72726563742060408201526437bbb732b960d91b606082015260800190565b60208082526032908201527f4552433732313a207472616e7366657220746f206e6f6e20455243373231526560408201527131b2b4bb32b91034b6b83632b6b2b73a32b960711b606082015260800190565b6000602082840312156141d757600080fd5b5051919050565b6001600160a01b0385811682528416602082015260408101839052608060608201819052600090614211908301846136d4565b9695505050505050565b60006020828403121561422d57600080fd5b8151611d5b81613611565b634e487b7160e01b600052603160045260246000fdfea26469706673582212207d30fe7e28e6c9c592a5f26b14a661766af2ebd97d2aa33240a73b315128344a64736f6c63430008110033",
    "sourcePath": "/home/ibm/Documents/astroon-smartcontracts-main/contracts/ASTNftSale.sol",
    "compiler": {
        "name": "solc",
        "version": "0.8.17+commit.8df45f5f"
    },
    "functionHashes": {
        "SaleDetailMap(uint256)": "f86772f9",
        "UpdateTokenAddress(address)": "f9be437a",
        "approve(address,uint256)": "095ea7b3",
        "astRewards()": "517cee08",
        "balanceOf(address)": "70a08231",
        "baseExtension()": "c6682862",
        "baseURI()": "6c0360eb",
        "burn(uint256)": "42966c68",
        "buyPresale(uint256)": "49c32217",
        "checkTokenRewardEligibility(uint256)": "28b13d11",
        "getAllTokenByCategory(uint8)": "eb1a286f",
        "getApproved(uint256)": "081812fc",
        "getCategory(uint256)": "f3052d26",
        "getRevealedTime()": "586d95e7",
        "initialize(string,string,string,address,string,uint256,uint256,address,uint96)": "0a25a0d8",
        "isActive()": "22f3e2d4",
        "isApprovedForAll(address,address)": "e985e9c5",
        "minting(uint8[],string[])": "46c52b6e",
        "name()": "06fdde03",
        "notRevealedUri()": "081c8c44",
        "owner()": "8da5cb5b",
        "ownerOf(uint256)": "6352211e",
        "pause()": "8456cb59",
        "paused()": "5c975abb",
        "renounceOwnership()": "715018a6",
        "reveal()": "a475b5dd",
        "revealed()": "51830227",
        "rewardEnable()": "e25d1737",
        "royaltyInfo(uint256,uint256)": "2a55205a",
        "safeTransferFrom(address,address,uint256)": "42842e0e",
        "safeTransferFrom(address,address,uint256,bytes)": "b88d4fde",
        "setApprovalForAll(address,bool)": "a22cb465",
        "setBaseExtension(string)": "da3ef23f",
        "setBaseURI(string)": "55f804b3",
        "setCost(uint256,uint256)": "7696e088",
        "setDefaultRoyalty(address,uint96)": "04634d8d",
        "setMaxPreSaleLimit(uint256)": "91b1ecc4",
        "setMinimumToken(uint256)": "9f2032e4",
        "setMintCost(uint256,uint256)": "5b701c97",
        "setNotRevealedURI(string)": "f2c4ce1e",
        "setRevealed()": "3bd64968",
        "setRewardContract(address)": "51508f0a",
        "setRewardStatus()": "5dd593c9",
        "setTireMap(uint256,uint256,uint256)": "5c0fe0be",
        "startPreSale(uint256,uint256,uint256,uint256,uint256)": "a23f590f",
        "supportsInterface(bytes4)": "01ffc9a7",
        "symbol()": "95d89b41",
        "tierMap(uint256)": "dfcdeb7f",
        "token()": "fc0c546a",
        "tokenByIndex(uint256)": "4f6ccce7",
        "tokenOfOwnerByIndex(address,uint256)": "2f745c59",
        "tokenURI(uint256)": "c87b56dd",
        "totalSupply()": "18160ddd",
        "transferFrom(address,address,uint256)": "23b872dd",
        "transferOwnership(address)": "f2fde38b",
        "unpause()": "3f4ba83a",
        "updateCategory(uint8[],uint256[])": "ec69d21f",
        "withdrawAmount()": "534844a2"
    },
    "gasEstimates": {
        "creation": {
            "codeDepositCost": "3405600",
            "executionCost": "3803",
            "totalCost": "3409403"
        },
        "external": {
            "SaleDetailMap(uint256)": "13197",
            "UpdateTokenAddress(address)": "26839",
            "approve(address,uint256)": "infinite",
            "astRewards()": "2405",
            "balanceOf(address)": "2651",
            "baseExtension()": "infinite",
            "baseURI()": "infinite",
            "burn(uint256)": "infinite",
            "buyPresale(uint256)": "infinite",
            "checkTokenRewardEligibility(uint256)": "2625",
            "getAllTokenByCategory(uint8)": "infinite",
            "getApproved(uint256)": "4793",
            "getCategory(uint256)": "2557",
            "getRevealedTime()": "2359",
            "initialize(string,string,string,address,string,uint256,uint256,address,uint96)": "infinite",
            "isActive()": "15308",
            "isApprovedForAll(address,address)": "infinite",
            "minting(uint8[],string[])": "infinite",
            "name()": "infinite",
            "notRevealedUri()": "infinite",
            "owner()": "2399",
            "ownerOf(uint256)": "2629",
            "pause()": "infinite",
            "paused()": "2426",
            "renounceOwnership()": "infinite",
            "reveal()": "48770",
            "revealed()": "2389",
            "rewardEnable()": "2427",
            "royaltyInfo(uint256,uint256)": "5189",
            "safeTransferFrom(address,address,uint256)": "infinite",
            "safeTransferFrom(address,address,uint256,bytes)": "infinite",
            "setApprovalForAll(address,bool)": "infinite",
            "setBaseExtension(string)": "infinite",
            "setBaseURI(string)": "infinite",
            "setCost(uint256,uint256)": "24692",
            "setDefaultRoyalty(address,uint96)": "25007",
            "setMaxPreSaleLimit(uint256)": "24578",
            "setMinimumToken(uint256)": "24555",
            "setMintCost(uint256,uint256)": "24675",
            "setNotRevealedURI(string)": "infinite",
            "setRevealed()": "26681",
            "setRewardContract(address)": "26863",
            "setRewardStatus()": "26650",
            "setTireMap(uint256,uint256,uint256)": "46826",
            "startPreSale(uint256,uint256,uint256,uint256,uint256)": "142917",
            "supportsInterface(bytes4)": "infinite",
            "symbol()": "infinite",
            "tierMap(uint256)": "4666",
            "token()": "2469",
            "tokenByIndex(uint256)": "6827",
            "tokenOfOwnerByIndex(address,uint256)": "5036",
            "tokenURI(uint256)": "infinite",
            "totalSupply()": "2350",
            "transferFrom(address,address,uint256)": "infinite",
            "transferOwnership(address)": "infinite",
            "unpause()": "infinite",
            "updateCategory(uint8[],uint256[])": "infinite",
            "withdrawAmount()": "infinite"
        },
        "internal": {
            "_baseURI()": "infinite",
            "_beforeTokenTransfer(address,address,uint256,uint256)": "infinite",
            "_burn(uint256)": "infinite",
            "validateNftLimit(address,uint256)": "infinite"
        }
    }
}